{
  "contractName": "EnergyTrading",
  "abi": [
    {
      "anonymous": false,
      "inputs": [
        {
          "indexed": true,
          "internalType": "address",
          "name": "user",
          "type": "address"
        },
        {
          "indexed": false,
          "internalType": "uint256",
          "name": "amount",
          "type": "uint256"
        }
      ],
      "name": "EnergyRequested",
      "type": "event"
    },
    {
      "anonymous": false,
      "inputs": [
        {
          "indexed": true,
          "internalType": "address",
          "name": "from",
          "type": "address"
        },
        {
          "indexed": true,
          "internalType": "address",
          "name": "to",
          "type": "address"
        },
        {
          "indexed": false,
          "internalType": "uint256",
          "name": "amount",
          "type": "uint256"
        },
        {
          "indexed": false,
          "internalType": "uint256",
          "name": "fee",
          "type": "uint256"
        }
      ],
      "name": "EnergyTraded",
      "type": "event"
    },
    {
      "inputs": [
        {
          "internalType": "uint256",
          "name": "amount",
          "type": "uint256"
        }
      ],
      "name": "requestEnergy",
      "outputs": [],
      "stateMutability": "nonpayable",
      "type": "function"
    },
    {
      "inputs": [
        {
          "internalType": "address",
          "name": "to",
          "type": "address"
        },
        {
          "internalType": "uint256",
          "name": "amount",
          "type": "uint256"
        }
      ],
      "name": "tradeEnergy",
      "outputs": [],
      "stateMutability": "nonpayable",
      "type": "function"
    },
    {
      "inputs": [],
      "name": "getEnergyBalance",
      "outputs": [
        {
          "internalType": "uint256",
          "name": "",
          "type": "uint256"
        }
      ],
      "stateMutability": "view",
      "type": "function"
    }
  ],
  "bytecode": "0x608060405234801561001057600080fd5b506103c4806100206000396000f3fe608060405234801561001057600080fd5b50600436106100415760003560e01c806332407da31461004657806399e1d3011461005b578063f110b2ea14610079575b600080fd5b61005961005436600461024d565b61008c565b005b6100636101b9565b6040516100709190610332565b60405180910390f35b610059610087366004610283565b6101cc565b6001600160a01b0382166100bb5760405162461bcd60e51b81526004016100b290610307565b60405180910390fd5b600081116100db5760405162461bcd60e51b81526004016100b29061029b565b600a60006100e98284610349565b3360009081526020819052604090205490915081111561011b5760405162461bcd60e51b81526004016100b2906102d0565b336000908152602081905260408120805483929061013a908490610361565b90915550506001600160a01b03841660009081526020819052604081208054859290610167908490610349565b90915550506040516001600160a01b0385169033907fece4328707e290d84e6f37c8af0d6f5c250570b849d6ac1aaaca14c0b278e986906101ab908790879061033b565b60405180910390a350505050565b3360009081526020819052604090205490565b600081116101ec5760405162461bcd60e51b81526004016100b29061029b565b336000908152602081905260408120805483929061020b908490610349565b909155505060405133907f763e3c6f7c69120ce2b4e4505849fbfc3c944e2ac5b6e91eda529a848df5f5d290610242908490610332565b60405180910390a250565b6000806040838503121561025f578182fd5b82356001600160a01b0381168114610275578283fd5b946020939093013593505050565b600060208284031215610294578081fd5b5035919050565b6020808252818101527f416d6f756e74206d7573742062652067726561746572207468616e207a65726f604082015260600190565b6020808252601c908201527f496e73756666696369656e7420656e6572677920746f20747261646500000000604082015260600190565b602080825260119082015270125b9d985b1a59081c9958da5c1a595b9d607a1b604082015260600190565b90815260200190565b918252602082015260400190565b6000821982111561035c5761035c610378565b500190565b60008282101561037357610373610378565b500390565b634e487b7160e01b600052601160045260246000fdfea2646970667358221220e200a6e423077dfd95121657be2c6a152bc736008bc1656031f00d1eb3095afd64736f6c63430008000033",
  "immutableReferences": {},
  "source": "// SPDX-License-Identifier: MIT\r\npragma solidity ^0.8.0;\r\n\r\ncontract EnergyTrading {\r\n    mapping(address => uint256) private energyBalance;\r\n\r\n    event EnergyRequested(address indexed user, uint256 amount);\r\n    event EnergyTraded(address indexed from, address indexed to, uint256 amount, uint256 fee);\r\n\r\n    // Request energy (adds to the sender's balance)\r\n    function requestEnergy(uint256 amount) public {\r\n        require(amount > 0, \"Amount must be greater than zero\");\r\n        energyBalance[msg.sender] += amount;\r\n        emit EnergyRequested(msg.sender, amount);\r\n    }\r\n\r\n    // Trade energy to another house (with a fee)\r\n    function tradeEnergy(address to, uint256 amount) public {\r\n        require(to != address(0), \"Invalid recipient\");\r\n        require(amount > 0, \"Amount must be greater than zero\");\r\n\r\n        uint256 fee = 10;\r\n        uint256 total = amount + fee;\r\n\r\n        require(energyBalance[msg.sender] >= total, \"Insufficient energy to trade\");\r\n\r\n        energyBalance[msg.sender] -= total;\r\n        energyBalance[to] += amount;\r\n\r\n        emit EnergyTraded(msg.sender, to, amount, fee);\r\n    }\r\n\r\n    // Get energy balance of the sender\r\n    function getEnergyBalance() public view returns (uint256) {\r\n        return energyBalance[msg.sender];\r\n    }\r\n}\r\n",
  "sourcePath": "C:\\Users\\akhil\\OneDrive\\Desktop\\blockchain-energy-management\\contracts\\EnergyManagement.sol",
  "compiler": {
    "name": "solc",
    "version": "0.8.0+commit.c7dfd78e.Emscripten.clang"
  },
  "schemaVersion": "3.4.16",
  "updatedAt": "2025-05-17T15:55:23.459Z",
  "devdoc": {
    "kind": "dev",
    "methods": {},
    "version": 1
  },
  "userdoc": {
    "kind": "user",
    "methods": {},
    "version": 1
  }
}