{
  "contractName": "EnergyManagement",
  "abi": [
    {
      "inputs": [],
      "stateMutability": "nonpayable",
      "type": "constructor"
    },
    {
      "anonymous": false,
      "inputs": [
        {
          "indexed": true,
          "internalType": "address",
          "name": "to",
          "type": "address"
        },
        {
          "indexed": false,
          "internalType": "uint256",
          "name": "amount",
          "type": "uint256"
        }
      ],
      "name": "EnergyAllocated",
      "type": "event"
    },
    {
      "anonymous": false,
      "inputs": [
        {
          "indexed": true,
          "internalType": "address",
          "name": "from",
          "type": "address"
        },
        {
          "indexed": true,
          "internalType": "address",
          "name": "to",
          "type": "address"
        },
        {
          "indexed": false,
          "internalType": "uint256",
          "name": "amount",
          "type": "uint256"
        },
        {
          "indexed": false,
          "internalType": "string",
          "name": "paymentMethod",
          "type": "string"
        }
      ],
      "name": "EnergyTraded",
      "type": "event"
    },
    {
      "inputs": [
        {
          "internalType": "address",
          "name": "",
          "type": "address"
        }
      ],
      "name": "energyBalance",
      "outputs": [
        {
          "internalType": "uint256",
          "name": "",
          "type": "uint256"
        }
      ],
      "stateMutability": "view",
      "type": "function",
      "constant": true
    },
    {
      "inputs": [],
      "name": "energyHouse",
      "outputs": [
        {
          "internalType": "address",
          "name": "",
          "type": "address"
        }
      ],
      "stateMutability": "view",
      "type": "function",
      "constant": true
    },
    {
      "inputs": [
        {
          "internalType": "address",
          "name": "house",
          "type": "address"
        },
        {
          "internalType": "uint256",
          "name": "amount",
          "type": "uint256"
        }
      ],
      "name": "allocateEnergy",
      "outputs": [],
      "stateMutability": "nonpayable",
      "type": "function"
    },
    {
      "inputs": [
        {
          "internalType": "address",
          "name": "to",
          "type": "address"
        },
        {
          "internalType": "uint256",
          "name": "amount",
          "type": "uint256"
        },
        {
          "internalType": "string",
          "name": "paymentMethod",
          "type": "string"
        }
      ],
      "name": "tradeEnergy",
      "outputs": [],
      "stateMutability": "nonpayable",
      "type": "function"
    },
    {
      "inputs": [
        {
          "internalType": "address",
          "name": "house",
          "type": "address"
        }
      ],
      "name": "getEnergyBalance",
      "outputs": [
        {
          "internalType": "uint256",
          "name": "",
          "type": "uint256"
        }
      ],
      "stateMutability": "view",
      "type": "function",
      "constant": true
    }
  ],
  "bytecode": "0x608060405234801561001057600080fd5b50336000806101000a81548173ffffffffffffffffffffffffffffffffffffffff021916908373ffffffffffffffffffffffffffffffffffffffff1602179055506109c0806100606000396000f3fe608060405234801561001057600080fd5b50600436106100575760003560e01c806346352b581461005c578063a61274961461008c578063be0b021c146100a8578063eafb8d7c146100c4578063ed7653e7146100e2575b600080fd5b610076600480360381019061007191906104f9565b610112565b604051610083919061071d565b60405180910390f35b6100a660048036038101906100a19190610522565b61015b565b005b6100c260048036038101906100bd919061055e565b610291565b005b6100cc61042b565b6040516100d991906106c2565b60405180910390f35b6100fc60048036038101906100f791906104f9565b61044f565b604051610109919061071d565b60405180910390f35b6000600160008373ffffffffffffffffffffffffffffffffffffffff1673ffffffffffffffffffffffffffffffffffffffff168152602001908152602001600020549050919050565b60008054906101000a900473ffffffffffffffffffffffffffffffffffffffff1673ffffffffffffffffffffffffffffffffffffffff163373ffffffffffffffffffffffffffffffffffffffff16146101e9576040517f08c379a00000000000000000000000000000000000000000000000000000000081526004016101e0906106dd565b60405180910390fd5b80600160008473ffffffffffffffffffffffffffffffffffffffff1673ffffffffffffffffffffffffffffffffffffffff168152602001908152602001600020600082825461023891906107e5565b925050819055508173ffffffffffffffffffffffffffffffffffffffff167ffe3058660e1fa65e03c2d0d1a1b0300b6cbf30aa5c346903feccb944ce6dc94d82604051610285919061071d565b60405180910390a25050565b81600160003373ffffffffffffffffffffffffffffffffffffffff1673ffffffffffffffffffffffffffffffffffffffff168152602001908152602001600020541015610313576040517f08c379a000000000000000000000000000000000000000000000000000000000815260040161030a906106fd565b60405180910390fd5b81600160003373ffffffffffffffffffffffffffffffffffffffff1673ffffffffffffffffffffffffffffffffffffffff1681526020019081526020016000206000828254610362919061083b565b9250508190555081600160008573ffffffffffffffffffffffffffffffffffffffff1673ffffffffffffffffffffffffffffffffffffffff16815260200190815260200160002060008282546103b891906107e5565b925050819055508273ffffffffffffffffffffffffffffffffffffffff163373ffffffffffffffffffffffffffffffffffffffff167f129ee5603b6a572b2247a01f73ecf4f8c5382ab5431329ebdccafe0ab3d38f14848460405161041e929190610738565b60405180910390a3505050565b60008054906101000a900473ffffffffffffffffffffffffffffffffffffffff1681565b60016020528060005260406000206000915090505481565b600061047a61047584610799565b610768565b90508281526020810184848401111561049257600080fd5b61049d8482856108ab565b509392505050565b6000813590506104b48161095c565b92915050565b600082601f8301126104cb57600080fd5b81356104db848260208601610467565b91505092915050565b6000813590506104f381610973565b92915050565b60006020828403121561050b57600080fd5b6000610519848285016104a5565b91505092915050565b6000806040838503121561053557600080fd5b6000610543858286016104a5565b9250506020610554858286016104e4565b9150509250929050565b60008060006060848603121561057357600080fd5b6000610581868287016104a5565b9350506020610592868287016104e4565b925050604084013567ffffffffffffffff8111156105af57600080fd5b6105bb868287016104ba565b9150509250925092565b6105ce8161086f565b82525050565b60006105df826107c9565b6105e981856107d4565b93506105f98185602086016108ba565b6106028161094b565b840191505092915050565b600061061a602a836107d4565b91507f4f6e6c792074686520656e6572677920686f7573652063616e20616c6c6f636160008301527f746520656e657267792e000000000000000000000000000000000000000000006020830152604082019050919050565b6000610680601c836107d4565b91507f496e73756666696369656e7420656e657267792062616c616e63652e000000006000830152602082019050919050565b6106bc816108a1565b82525050565b60006020820190506106d760008301846105c5565b92915050565b600060208201905081810360008301526106f68161060d565b9050919050565b6000602082019050818103600083015261071681610673565b9050919050565b600060208201905061073260008301846106b3565b92915050565b600060408201905061074d60008301856106b3565b818103602083015261075f81846105d4565b90509392505050565b6000604051905081810181811067ffffffffffffffff8211171561078f5761078e61091c565b5b8060405250919050565b600067ffffffffffffffff8211156107b4576107b361091c565b5b601f19601f8301169050602081019050919050565b600081519050919050565b600082825260208201905092915050565b60006107f0826108a1565b91506107fb836108a1565b9250827fffffffffffffffffffffffffffffffffffffffffffffffffffffffffffffffff038211156108305761082f6108ed565b5b828201905092915050565b6000610846826108a1565b9150610851836108a1565b925082821015610864576108636108ed565b5b828203905092915050565b600061087a82610881565b9050919050565b600073ffffffffffffffffffffffffffffffffffffffff82169050919050565b6000819050919050565b82818337600083830152505050565b60005b838110156108d85780820151818401526020810190506108bd565b838111156108e7576000848401525b50505050565b7f4e487b7100000000000000000000000000000000000000000000000000000000600052601160045260246000fd5b7f4e487b7100000000000000000000000000000000000000000000000000000000600052604160045260246000fd5b6000601f19601f8301169050919050565b6109658161086f565b811461097057600080fd5b50565b61097c816108a1565b811461098757600080fd5b5056fea2646970667358221220f7027c7505d880868e18b7515ea59bc06aa93d7f483a733afd55cad020d8935564736f6c63430008000033",
  "immutableReferences": {},
  "source": "// SPDX-License-Identifier: MIT\r\npragma solidity ^0.8.0;\r\n\r\ncontract EnergyManagement {\r\n\r\n    address public energyHouse;\r\n    mapping(address => uint256) public energyBalance;\r\n    \r\n    // Event to log energy allocations\r\n    event EnergyAllocated(address indexed to, uint256 amount);\r\n    event EnergyTraded(address indexed from, address indexed to, uint256 amount, string paymentMethod);\r\n\r\n    constructor() {\r\n        energyHouse = msg.sender;  // The contract deployer is the energy house initially\r\n    }\r\n\r\n    // Function to allocate energy to a house\r\n    function allocateEnergy(address house, uint256 amount) external {\r\n        require(msg.sender == energyHouse, \"Only the energy house can allocate energy.\");\r\n        energyBalance[house] += amount;\r\n        emit EnergyAllocated(house, amount);\r\n    }\r\n\r\n    // Function to trade energy between houses\r\n    function tradeEnergy(address to, uint256 amount, string memory paymentMethod) external {\r\n        require(energyBalance[msg.sender] >= amount, \"Insufficient energy balance.\");\r\n        energyBalance[msg.sender] -= amount;\r\n        energyBalance[to] += amount;\r\n        emit EnergyTraded(msg.sender, to, amount, paymentMethod);\r\n    }\r\n\r\n    // Function to check the energy balance of an address\r\n    function getEnergyBalance(address house) external view returns (uint256) {\r\n        return energyBalance[house];\r\n    }\r\n}\r\n",
  "sourcePath": "C:\\Users\\akhil\\OneDrive\\Desktop\\blockchain-energy-management\\contracts\\EnergyManagement.sol",
  "compiler": {
    "name": "solc",
    "version": "0.8.0+commit.c7dfd78e.Emscripten.clang"
  },
  "schemaVersion": "3.4.16",
  "updatedAt": "2025-05-17T15:55:28.209Z",
  "networkType": "ethereum",
  "devdoc": {
    "kind": "dev",
    "methods": {},
    "version": 1
  },
  "userdoc": {
    "kind": "user",
    "methods": {},
    "version": 1
  }
}